{
  "_format": "hh-sol-artifact-1",
  "contractName": "Doc",
  "sourceName": "contracts/Doc.sol",
  "abi": [
    {
      "inputs": [
        {
          "internalType": "address",
          "name": "",
          "type": "address"
        },
        {
          "internalType": "uint256",
          "name": "",
          "type": "uint256"
        }
      ],
      "name": "accessList",
      "outputs": [
        {
          "internalType": "address",
          "name": "user",
          "type": "address"
        },
        {
          "internalType": "bool",
          "name": "access",
          "type": "bool"
        }
      ],
      "stateMutability": "view",
      "type": "function"
    },
    {
      "inputs": [
        {
          "internalType": "address",
          "name": "_user",
          "type": "address"
        },
        {
          "internalType": "string",
          "name": "url",
          "type": "string"
        }
      ],
      "name": "add",
      "outputs": [],
      "stateMutability": "nonpayable",
      "type": "function"
    },
    {
      "inputs": [
        {
          "internalType": "address",
          "name": "user",
          "type": "address"
        }
      ],
      "name": "allow",
      "outputs": [],
      "stateMutability": "nonpayable",
      "type": "function"
    },
    {
      "inputs": [
        {
          "internalType": "address",
          "name": "user",
          "type": "address"
        }
      ],
      "name": "disallow",
      "outputs": [],
      "stateMutability": "nonpayable",
      "type": "function"
    },
    {
      "inputs": [
        {
          "internalType": "address",
          "name": "_user",
          "type": "address"
        }
      ],
      "name": "display",
      "outputs": [
        {
          "internalType": "string[]",
          "name": "",
          "type": "string[]"
        }
      ],
      "stateMutability": "view",
      "type": "function"
    },
    {
      "inputs": [],
      "name": "shareAccess",
      "outputs": [
        {
          "components": [
            {
              "internalType": "address",
              "name": "user",
              "type": "address"
            },
            {
              "internalType": "bool",
              "name": "access",
              "type": "bool"
            }
          ],
          "internalType": "struct Doc.Access[]",
          "name": "",
          "type": "tuple[]"
        }
      ],
      "stateMutability": "view",
      "type": "function"
    }
  ],
  "bytecode": "0x608060405234801561001057600080fd5b50611451806100206000396000f3fe608060405234801561001057600080fd5b50600436106100625760003560e01c806336d6da551461006757806370c2b41914610083578063a9ed9cb8146100b4578063bc8bef81146100d0578063eb39113f146100ee578063ff9913e81461011e575b600080fd5b610081600480360381019061007c9190610c71565b61013a565b005b61009d60048036038101906100989190610d07565b6101b9565b6040516100ab929190610d71565b60405180910390f35b6100ce60048036038101906100c99190610d9a565b610223565b005b6100d861043f565b6040516100e59190610ec3565b60405180910390f35b61010860048036038101906101039190610d9a565b610548565b6040516101159190611037565b60405180910390f35b61013860048036038101906101339190610d9a565b61075e565b005b6000808473ffffffffffffffffffffffffffffffffffffffff1673ffffffffffffffffffffffffffffffffffffffff1681526020019081526020016000208282909180600181540180825580915050600190039060005260206000200160009091929091929091929091925091826101b392919061129f565b50505050565b600260205281600052604060002081815481106101d557600080fd5b90600052602060002001600091509150508060000160009054906101000a900473ffffffffffffffffffffffffffffffffffffffff16908060000160149054906101000a900460ff16905082565b6000600160003373ffffffffffffffffffffffffffffffffffffffff1673ffffffffffffffffffffffffffffffffffffffff16815260200190815260200160002060008373ffffffffffffffffffffffffffffffffffffffff1673ffffffffffffffffffffffffffffffffffffffff16815260200190815260200160002060006101000a81548160ff02191690831515021790555060005b600260003373ffffffffffffffffffffffffffffffffffffffff1673ffffffffffffffffffffffffffffffffffffffff1681526020019081526020016000208054905081101561043b578173ffffffffffffffffffffffffffffffffffffffff16600260003373ffffffffffffffffffffffffffffffffffffffff1673ffffffffffffffffffffffffffffffffffffffff168152602001908152602001600020828154811061036d5761036c61136f565b5b9060005260206000200160000160009054906101000a900473ffffffffffffffffffffffffffffffffffffffff1673ffffffffffffffffffffffffffffffffffffffff160361042e576000600260003373ffffffffffffffffffffffffffffffffffffffff1673ffffffffffffffffffffffffffffffffffffffff16815260200190815260200160002082815481106104095761040861136f565b5b9060005260206000200160000160146101000a81548160ff0219169083151502179055505b80806001019150506102bb565b5050565b6060600260003373ffffffffffffffffffffffffffffffffffffffff1673ffffffffffffffffffffffffffffffffffffffff168152602001908152602001600020805480602002602001604051908101604052809291908181526020016000905b8282101561053f578382906000526020600020016040518060400160405290816000820160009054906101000a900473ffffffffffffffffffffffffffffffffffffffff1673ffffffffffffffffffffffffffffffffffffffff1673ffffffffffffffffffffffffffffffffffffffff1681526020016000820160149054906101000a900460ff161515151581525050815260200190600101906104a0565b50505050905090565b60603373ffffffffffffffffffffffffffffffffffffffff168273ffffffffffffffffffffffffffffffffffffffff16148061060a5750600160008373ffffffffffffffffffffffffffffffffffffffff1673ffffffffffffffffffffffffffffffffffffffff16815260200190815260200160002060003373ffffffffffffffffffffffffffffffffffffffff1673ffffffffffffffffffffffffffffffffffffffff16815260200190815260200160002060009054906101000a900460ff165b610649576040517f08c379a0000000000000000000000000000000000000000000000000000000008152600401610640906113fb565b60405180910390fd5b6000808373ffffffffffffffffffffffffffffffffffffffff1673ffffffffffffffffffffffffffffffffffffffff168152602001908152602001600020805480602002602001604051908101604052809291908181526020016000905b828210156107535783829060005260206000200180546106c6906110c2565b80601f01602080910402602001604051908101604052809291908181526020018280546106f2906110c2565b801561073f5780601f106107145761010080835404028352916020019161073f565b820191906000526020600020905b81548152906001019060200180831161072257829003601f168201915b5050505050815260200190600101906106a7565b505050509050919050565b60018060003373ffffffffffffffffffffffffffffffffffffffff1673ffffffffffffffffffffffffffffffffffffffff16815260200190815260200160002060008373ffffffffffffffffffffffffffffffffffffffff1673ffffffffffffffffffffffffffffffffffffffff16815260200190815260200160002060006101000a81548160ff02191690831515021790555060011515600360003373ffffffffffffffffffffffffffffffffffffffff1673ffffffffffffffffffffffffffffffffffffffff16815260200190815260200160002060008373ffffffffffffffffffffffffffffffffffffffff1673ffffffffffffffffffffffffffffffffffffffff16815260200190815260200160002060009054906101000a900460ff16151503610a105760005b600260003373ffffffffffffffffffffffffffffffffffffffff1673ffffffffffffffffffffffffffffffffffffffff16815260200190815260200160002080549050811015610a0a578173ffffffffffffffffffffffffffffffffffffffff16600260003373ffffffffffffffffffffffffffffffffffffffff1673ffffffffffffffffffffffffffffffffffffffff168152602001908152602001600020828154811061093c5761093b61136f565b5b9060005260206000200160000160009054906101000a900473ffffffffffffffffffffffffffffffffffffffff1673ffffffffffffffffffffffffffffffffffffffff16036109fd576001600260003373ffffffffffffffffffffffffffffffffffffffff1673ffffffffffffffffffffffffffffffffffffffff16815260200190815260200160002082815481106109d8576109d761136f565b5b9060005260206000200160000160146101000a81548160ff0219169083151502179055505b808060010191505061088a565b50610ba1565b600260003373ffffffffffffffffffffffffffffffffffffffff1673ffffffffffffffffffffffffffffffffffffffff16815260200190815260200160002060405180604001604052808373ffffffffffffffffffffffffffffffffffffffff168152602001600115158152509080600181540180825580915050600190039060005260206000200160009091909190915060008201518160000160006101000a81548173ffffffffffffffffffffffffffffffffffffffff021916908373ffffffffffffffffffffffffffffffffffffffff16021790555060208201518160000160146101000a81548160ff02191690831515021790555050506001600360003373ffffffffffffffffffffffffffffffffffffffff1673ffffffffffffffffffffffffffffffffffffffff16815260200190815260200160002060008373ffffffffffffffffffffffffffffffffffffffff1673ffffffffffffffffffffffffffffffffffffffff16815260200190815260200160002060006101000a81548160ff0219169083151502179055505b50565b600080fd5b600080fd5b600073ffffffffffffffffffffffffffffffffffffffff82169050919050565b6000610bd982610bae565b9050919050565b610be981610bce565b8114610bf457600080fd5b50565b600081359050610c0681610be0565b92915050565b600080fd5b600080fd5b600080fd5b60008083601f840112610c3157610c30610c0c565b5b8235905067ffffffffffffffff811115610c4e57610c4d610c11565b5b602083019150836001820283011115610c6a57610c69610c16565b5b9250929050565b600080600060408486031215610c8a57610c89610ba4565b5b6000610c9886828701610bf7565b935050602084013567ffffffffffffffff811115610cb957610cb8610ba9565b5b610cc586828701610c1b565b92509250509250925092565b6000819050919050565b610ce481610cd1565b8114610cef57600080fd5b50565b600081359050610d0181610cdb565b92915050565b60008060408385031215610d1e57610d1d610ba4565b5b6000610d2c85828601610bf7565b9250506020610d3d85828601610cf2565b9150509250929050565b610d5081610bce565b82525050565b60008115159050919050565b610d6b81610d56565b82525050565b6000604082019050610d866000830185610d47565b610d936020830184610d62565b9392505050565b600060208284031215610db057610daf610ba4565b5b6000610dbe84828501610bf7565b91505092915050565b600081519050919050565b600082825260208201905092915050565b6000819050602082019050919050565b610dfc81610bce565b82525050565b610e0b81610d56565b82525050565b604082016000820151610e276000850182610df3565b506020820151610e3a6020850182610e02565b50505050565b6000610e4c8383610e11565b60408301905092915050565b6000602082019050919050565b6000610e7082610dc7565b610e7a8185610dd2565b9350610e8583610de3565b8060005b83811015610eb6578151610e9d8882610e40565b9750610ea883610e58565b925050600181019050610e89565b5085935050505092915050565b60006020820190508181036000830152610edd8184610e65565b905092915050565b600081519050919050565b600082825260208201905092915050565b6000819050602082019050919050565b600081519050919050565b600082825260208201905092915050565b60005b83811015610f4b578082015181840152602081019050610f30565b60008484015250505050565b6000601f19601f8301169050919050565b6000610f7382610f11565b610f7d8185610f1c565b9350610f8d818560208601610f2d565b610f9681610f57565b840191505092915050565b6000610fad8383610f68565b905092915050565b6000602082019050919050565b6000610fcd82610ee5565b610fd78185610ef0565b935083602082028501610fe985610f01565b8060005b8581101561102557848403895281516110068582610fa1565b945061101183610fb5565b925060208a01995050600181019050610fed565b50829750879550505050505092915050565b600060208201905081810360008301526110518184610fc2565b905092915050565b600082905092915050565b7f4e487b7100000000000000000000000000000000000000000000000000000000600052604160045260246000fd5b7f4e487b7100000000000000000000000000000000000000000000000000000000600052602260045260246000fd5b600060028204905060018216806110da57607f821691505b6020821081036110ed576110ec611093565b5b50919050565b60008190508160005260206000209050919050565b60006020601f8301049050919050565b600082821b905092915050565b6000600883026111557fffffffffffffffffffffffffffffffffffffffffffffffffffffffffffffffff82611118565b61115f8683611118565b95508019841693508086168417925050509392505050565b6000819050919050565b600061119c61119761119284610cd1565b611177565b610cd1565b9050919050565b6000819050919050565b6111b683611181565b6111ca6111c2826111a3565b848454611125565b825550505050565b600090565b6111df6111d2565b6111ea8184846111ad565b505050565b5b8181101561120e576112036000826111d7565b6001810190506111f0565b5050565b601f82111561125357611224816110f3565b61122d84611108565b8101602085101561123c578190505b61125061124885611108565b8301826111ef565b50505b505050565b600082821c905092915050565b600061127660001984600802611258565b1980831691505092915050565b600061128f8383611265565b9150826002028217905092915050565b6112a98383611059565b67ffffffffffffffff8111156112c2576112c1611064565b5b6112cc82546110c2565b6112d7828285611212565b6000601f83116001811461130657600084156112f4578287013590505b6112fe8582611283565b865550611366565b601f198416611314866110f3565b60005b8281101561133c57848901358255600182019150602085019450602081019050611317565b868310156113595784890135611355601f891682611265565b8355505b6001600288020188555050505b50505050505050565b7f4e487b7100000000000000000000000000000000000000000000000000000000600052603260045260246000fd5b600082825260208201905092915050565b7f596f7520646f6e74206861766520616363657373000000000000000000000000600082015250565b60006113e560148361139e565b91506113f0826113af565b602082019050919050565b60006020820190508181036000830152611414816113d8565b905091905056fea26469706673582212207057d9874732b1269c059ede870dcda253edb7a7026df90d98f091e3db4cd29d64736f6c63430008180033",
  "linkReferences": {},
  "deployedLinkReferences": {}
}